:040000006EEF00F0AF
:100008004C82FACF06F0FBCF07F0E9CF08F0EACF31
:1000180009F0E1CF0AF0E2CF0BF0D9CF0CF0DACF3C
:100028000DF0F3CF0EF0F4CF0FF0F6CF10F0F7CFBE
:1000380011F0F8CF12F0F5CF13F09DB69EA603D0BD
:10004800F9EC09F029D0A0B6A1A603D0DFEC0EF098
:1000580023D09DBA9EAA03D009EC0EF01DD09DB8FE
:100068009EA803D04FEC0CF017D0A3BAA4AA03D0D3
:10007800F3EC0DF011D0A3B8A4A803D095EC0DF0C3
:100088000BD0F2BAF2A403D0D2EC0EF005D09DB09A
:100098009EA002D0DDEC0DF013C0F5FF12C0F8FFF2
:1000A80011C0F7FF10C0F6FF0FC0F4FF0EC0F3FF3A
:1000B8000DC0DAFF0CC0D9FF0BC0E2FF0AC0E1FF98
:1000C80009C0EAFF08C0E9FF07C0FBFF06C0FAFF46
:0800D8004C9211007CEF0DF0C9
:10100000004F4C45442054455354000049EC0EF029
:10101000F28EF28C8D948098680E0001DF6FE40EE2
:10102000E82EFED7DF2FFCD700D0F5EC0CF0FF0E3A
:10103000D7EC0CF0000E0001D86F010E0001D96F43
:10104000100E0001DA6F000E1AEC0BF04150D8B40C
:1010500064D1000E416E530E2AEC0CF0530E2AECB4
:101060000CF040A604D00001DF6BDF2B02D00001A2
:10107000DF6B40A404D0020E0001E06F02D000013B
:10108000E06B40A004D0040E0001E16F02D000012B
:10109000E16B40A204D0080E0001E26F02D0000113
:1010A000E26B83A804D0100E0001E36F02D00001B0
:1010B000E36B82A004D0200E0001E46F02D0000197
:1010C000E46B83A604D0400E0001E56F02D000015E
:1010D000E56B81A004D0800E0001E66F02D0000114
:1010E000E66B0001E6510001E5110001E411000189
:1010F000E3110001E2110001E1110001E011000122
:10110000DF11C2EC0EF081A204D00001DF6BDF2BF7
:1011100002D00001DF6B40A804D0020E0001E06F96
:1011200002D00001E06B80AA04D0040E0001E16F40
:1011300002D00001E16B81A804D0080E0001E26F2B
:1011400002D00001E26B83A204D0100E0001E36F15
:1011500002D00001E36B83A004D0200E0001E46FF5
:1011600002D00001E46B80A204D0400E0001E56FC4
:1011700002D00001E56B80A004D0800E0001E66F74
:1011800002D00001E66B0001E6510001E51100010B
:10119000E4110001E3110001E2110001E11100017D
:1011A000E0110001DF11C2EC0EF0020EAEEC0DF00A
:1011B000D89015321432D8901532143214500008D9
:1011C0000001DF6F0001DF05C2EC0EF0030EAEEC94
:1011D0000DF0D89015321432D890153214321450C4
:1011E00000080001DF6F0001DF05C2EC0EF0050E04
:1011F000AEEC0DF0D89015321432D890153214326E
:10120000145000080001DF6F0001DF05C2EC0EF092
:10121000060EAEEC0DF0D89015321432D89015327F
:101220001432145000080001DF6F0001DF05C2EC2A
:101230000EF081A604D00001DF6BDF2B02D000018D
:10124000DF6B40AA04D0400E0001E06F02D0000125
:10125000E06B81A404D0800E0001E16F02D0000198
:10126000E16B0001E1510001E0110001E26F81AA90
:1012700002D0010E01D0000E00080001E36F000152
:10128000D890E335020F0001E2110001DF11C2EC3A
:101290000EF040AC04D00001DF6BDF2B02D0000168
:1012A000DF6B83AA04D0020E0001E06F02D00001C0
:1012B000E06B82AA04D0040E0001E16F02D00001AD
:1012C000E16B83A404D0080E0001E26F02D000019C
:1012D000E26B82A204D0100E0001E36F02D0000185
:1012E000E36B82A404D0200E0001E46F02D0000161
:1012F000E46B0001E4510001E3110001E21100017F
:10130000E1110001E0110001DF11C2EC0EF0450E09
:101310002AEC0CF0450E2AEC0CF03950D8B403D06E
:1013200048EC0DF0406E3450D8B490D662EC0DF01D
:10133000466E4350D8B422D02BD095EC0EF0000E60
:101340000001C06FC0C0D6F0000E446E445089EC5E
:101350000EF020D0000E0001C06FC0C0D6F046C015
:1013600044F0445089EC0EF007D046C0C0F0C0C035
:10137000D6F0445089EC0EF0010E0BD04550000A17
:10138000D8B4DBD7110AD8B4E5D7030AD8B4EDD75F
:10139000000E436E4350D8B419D028D00D0E451816
:1013A000D8A424D04450D8A421D0000E0001C06F8E
:1013B000C0C0D6F0010E446E445089EC0EF016D039
:1013C00046501FEC0EF00001C02B10D04650000A12
:1013D000D8B40CD00A0AD8B4E1D7070AD8B406D0DA
:1013E0001C0AD8B403D0030AD8A4EAD746C045F0F3
:1013F0002DD69E96C6AEFBD0C69E000E3E6E20EE4B
:1014000003F02E50D9262F50DA22DECF04F0DDCFA4
:1014100005F004C0D9FF05C0DAFF010EDF6E000E33
:101420002E6E000E2F6E12002BB2120029C02EF06D
:101430002AC02FF029C0D9FF2AC0DAFFDF503F6E43
:1014400020EE01F02950D9262A50DA22DECF30F0E2
:10145000DDCF31F0050E2926000E2A22D00E2918E4
:1014600008E1000E2A18D8A404D0CB0E296E000E75
:101470002A6E2B902750291804E128502A18D8B436
:101480002B82C580020E3E6E1200C582020E3E6E99
:101490001200C5AC05D02D2A040EB8EC0CF01200D9
:1014A000D8904830056E4730046E0450C96E47A08E
:1014B00003D00B0E3E6E1200030E3E6E1200C5AC42
:1014C00005D02D2A040EB8EC0CF01200C58247C0DE
:1014D00004F048C005F005C004F0056A060E0416C5
:1014E000000E0516F00E0410476E0550486E47803A
:1014F000010E326E020E3E6E12003204D8B41AD0C3
:1015000030C0D9FF31C0DAFFDECF47F0DDCF48F081
:1015100020EE03F03050D9263150DA22DECFB8F079
:10152000DDCFB9F020EE02F03050D9263150DA226A
:10153000DF50336E47C0C9FF47A003D0050E3E6E93
:101540001200030E3E6E1200C5AC06D02D2AC59CBB
:10155000050EB8EC0CF0120033063328D8A40ED0D8
:10156000050E3026000E31223F2E04D0000EB8ECBE
:101570000CF01200C582020E3E6E1200B8C0D9FFF8
:10158000B9C0DAFFDF50C96E0001B84BB92B1200A9
:10159000C5AC06D02D2A040EB8EC0CF0C59C120088
:1015A000C586080E3E6E1200080E3E6EC5861200FD
:1015B000B8C0D9FFB9C0DAFFC9CFDFFF0001B84B0F
:1015C000B92B010E335ED8B404D0C59A060E3E6E18
:1015D00003D0C58AA1EC0EF0C5881200000EB8EC4D
:1015E0000CF012002D2A060EB8EC0CF012003E5042
:1015F000000AD8B419D7010AD8B447D7030AD8B417
:101600007CD7010AD8B4A0D7070AD8B4E7D7010A13
:10161000D8B4BED7030AD8B4C7D7010AD8B4DED726
:101620000F0AD8B4C5D7020AD8B433D7010AD8B440
:1016300046D7D8D70001DD6F000E0001DE6FD8C09D
:10164000D6F00001DD5189EC0EF017D00001DE511B
:10165000010DD9C0DBF0DAC0DCF0F3500001DB276C
:10166000F4500001DC23DBC0F6FFDCC0F7FF08000C
:10167000F5501FEC0EF00001DE2B0001DE51D8C04A
:10168000DBF00001DC6B0001DB27000EDC23000136
:10169000DCBF08D00001DC511CE1100E0001DB5D55
:1016A000D8B012000001DE51010DD9C0DBF0DAC064
:1016B000DCF0F3500001DB27F4500001DC23DBC039
:1016C000F6FFDCC0F7FF0800F5500009D8B412009F
:1016D000BDD71200196E2BB039D016C0D9FF17C074
:1016E000DAFF020EDF6E20EE01F02750D9262850D7
:1016F000DA2214C0DEFF15C0DDFF27C0D9FF28C0E5
:10170000DAFF19C0DFFF20EE03F02750D92628505A
:10171000DA2216C0DEFF17C0DDFF050E2726000EF9
:101720002822D00E271808E1000E2818D8A404D0CB
:10173000CB0E276E000E286E2B92275029180CE135
:1017400028502A18D8A408D02B8006D016C0D9FF5C
:1017500017C0DAFF010EDF6E16C0D9FF17C0DAFF1F
:10176000020EDE18D8A412003E50D8A4FDD79E86E3
:1017700012000001D46F020E496E000E0001BD6F11
:10178000000EBC6F000E0001BB6F000EBA6F39D0A7
:1017900024C01DF025C01EF026C01FF0D4C020F0CC
:1017A000216A490E226E000E236E05EC0CF011D05A
:1017B000E40E00D000D0E82EFCD700D000D0140EEC
:1017C0000001BA190001BB11D8B407D00001BA4B0F
:1017D000BB2B020E4918D8B4EBD7140E0001BA196E
:1017E0000001BB11D8B412004950D8B41200020E47
:1017F0000001BC190001BD11D8B412000001BC4B9E
:10180000BD2B4904D8B41200C3D72BB01CD0C60ED0
:10181000146E000E156E1DC016F01EC017F01FC00E
:1018200018F020C019F021C01AF096EC0CF0C60E8A
:10183000146E000E156E22C016F023C017F0010EB4
:101840006AEC0BF0120022C0D9FF23C0DAFF010EB0
:10185000DF6E1200146E0001E751D8B4FCD79DB8BA
:1018600006D04250D8A403D014C0ADFF13D09D9829
:101870003750010D400EF324D96E010EF420DA6EBC
:1018800014C0DFFF372A3F0E376402D0000E376ED8
:101890000001E7074250D8A412009D881200400EB4
:1018A0000001E7611ED080BE13D03850010D400EFC
:1018B000F324D96E010EF420DA6EDF50AD6E382AB3
:1018C0003F0E386402D0000E386E0001E72B120084
:1018D0009D98010E426E42B002D0409E01D0408ED3
:1018E00012009D981200000E896E92680C0E0F0176
:1018F000386F000E8A6E9368000E0F01396F000E6C
:10190000616E180E8B6E9468000E0F013A6F000E18
:101910008C6E9568000E0F013B6F000E8D6E070EEA
:10192000966E030E0F013C6FF18E120019C01BF072
:101930001AC01CF0D8901B361C3614C0D9FF15C035
:10194000DAFF1BC0DEFF1CC0DDFF20EE02F01450EA
:10195000D9261550DA2218C0DFFF20EE03F014500C
:10196000D9261550DA2216C0DEFF17C0DDFF12009F
:10197000036EC58420EE03F02E50D9262F50DA22B4
:10198000DE50DE10D8B410D020EE03F02E50D92651
:101990002F50DA22DECF01F0DDCF02F001C0D9FFF7
:1019A00002C0DAFF03C0DFFF000E3E6E120000012E
:1019B000D76F2A0E34EC0EF0790E34EC0EF0810E57
:1019C00034EC0EF00001D75134EC0EF0780E34EC0C
:1019D0000EF0280E34EC0EF02A0E0001D66F8E0E9B
:1019E000E82EFED7D62FFCD71200010E34EC0EF0F5
:1019F0002A0E0001D66F8E0EE82EFED7D62FFCD70A
:101A0000030E34EC0EF00C0E34EC0EF0010E34EC40
:101A10000EF02A0E0001D66F8E0EE82EFED7D62FBE
:101A2000FCD71200A39AA398480E706E900E716EA8
:101A3000260E726E760E756E000E766E000E3C6E81
:101A4000000E3D6E080E0001E86F000E3A6E000EAB
:101A50003B6E000E396EA38A12009D9A9D98480E27
:101A6000B86E900EAB6E260EAC6E8A0EAF6E000E88
:101A7000B06E000E376E000E386E400E0001E76F3C
:101A8000000E356E000E366E000E346E9D8A12000A
:101A9000000E146E3950D8B4FDD7A39A3B50010DF7
:101AA000600EF324D96E000EF420DA6EDF50146E4F
:101AB0003B2A3F0E3B6402D0000E3B6E3906A38AE0
:101AC00014501200000E146E3450D8B4FDD79D9AF5
:101AD0003650010D000EF324D96E010EF420DA6E9B
:101AE000DF50146E362A3F0E366402D0000E366E7A
:101AF00034069D8A1450120001EE00F0800EEE6A4A
:101B0000E806FDE100EE60F0740EEE6AE806FDE125
:101B100000EE27F0230EEE6AE806FDE14C904C92B1
:101B2000000EF86E000106EF08F0080E0001E861F3
:101B300013D03D50010DB00EF324D96E000EF420E9
:101B4000DA6EDF50736E3D2A070E3D6402D0000E40
:101B50003D6E0001E82B1200A3981200186E18C009
:101B600016F016461646C2501618830B1618C26E8B
:101B7000C280C282C2B2FED7C450176E166AC3506A
:101B80001624146E000E1720156E1200CB0E296E4F
:101B9000000E2A6ECB0E276E000E286E2B822B9025
:101BA000000E2D6E000EC76E280EC66E000ECB6E98
:101BB0004F0EC86E9E969D8612009E904B50CF6E23
:101BC0004AC0CEFF0001BE4BBF2B0001BE51000139
:101BD000BF11D8B41200D8EC0EF0000E0001BF6F98
:101BE000000EBE6F120071A202D0719871883A5037
:101BF000010D600EF324D96E000EF420DA6E74CF5E
:101C0000DFFF3A2A3F0E3A6402D0000E3A6E392ABC
:101C10001200ABA202D0AB98AB883550010D000E7C
:101C2000F324D96E010EF420DA6EAECFDFFF352A31
:101C30003F0E356402D0000E356E342A12000001CA
:101C4000D56F400E0001D26FD5C0D3F0D20E246EF6
:101C5000000E256E020E266E3C0EB9EC0BF0D50E72
:101C6000E82EFED700F012000001D56F000E000133
:101C7000D06FD5C0D1F0D00E246E000E256E020EAE
:101C8000266E3C0EB9EC0BF0D50EE82EFED700F018
:101C90001200CBEC0EF073EC0CF0B8EC0EF0ADECE7
:101CA0000EF02DEC0DF012EC0DF0C6EC0DF06DEC1D
:101CB0000EF05CEC0EF01200300ECD6E000ECC6E0D
:101CC0003C0ECF6EAF0ECE6ECECF4AF0CFCF4BF0E4
:101CD0009E909D80DBEC0EF01200D50ED56E800E2E
:101CE000D76E000ED66E800E0001E96FF294F28A74
:101CF000DDEC0EF012004204D8A4120080BE1200E7
:101D0000000E426E42B002D0409E01D0408E9D88AF
:101D100012000001D76F0001D739E846E00B00013F
:101D2000D611800934EC0EF01200010E34EC0EF0E6
:101D30002A0E0001D66F8E0EE82EFED7D62FFCD7C6
:101D40001200050E3026000E31223F2E03D0040E65
:101D50003E6E1200010E3E6E1200010EC26E800E2B
:101D6000C16E8E0EC06E000EC36E000EC46E1200E9
:101D7000D09E9F96A2969F9A9F98A59AA598F19417
:101D80009F901200156E15502AEC0CF01550FF0AAA
:101D90002AEC0CF01200600ED36E040ED26E400ED0
:101DA0009B6E1200F294E9C0D6FF7BEC0EF012009D
:101DB000010E416E1200CD801200D58E120012006D
:020000040020DA
:08000000FFFFFFFFFFFFFFFF00
:020000040030CA
:0E000000FF081F3CFFBF81FF0FC00FE00F4045
:00000001FF
