:040000006EEF00F0AF
:100008004C82FACF06F0FBCF07F0E9CF08F0EACF31
:1000180009F0E1CF0AF0E2CF0BF0D9CF0CF0DACF3C
:100028000DF0F3CF0EF0F4CF0FF0F6CF10F0F7CFBE
:1000380011F0F8CF12F0F5CF13F09DB69EA603D0BD
:10004800F6EC09F029D0A0B6A1A603D012EC0FF067
:1000580023D09DBA9EAA03D033EC0EF01DD09DB8D4
:100068009EA803D090EC0CF017D0A3BAA4AA03D092
:100078001DEC0EF011D0A3B8A4A803D0D4EC0DF059
:100088000BD0F2BAF2A403D005EC0FF005D09DB066
:100098009EA002D086EC0EF013C0F5FF12C0F8FF48
:1000A80011C0F7FF10C0F6FF0FC0F4FF0EC0F3FF3A
:1000B8000DC0DAFF0CC0D9FF0BC0E2FF0AC0E1FF98
:1000C80009C0EAFF08C0E9FF07C0FBFF06C0FAFF46
:0800D8004C921100BBEF0DF08A
:10100000004F4C45442054455354000073EC0EF0FF
:10101000F28EF28C8D948098680E0001E16FE40EE0
:10102000E82EFED7E12FFCD700F0D6EC0CF0FF0E37
:10103000F5EC0CF0000E0001DA6F010E0001DB6F21
:10104000100E0001DC6F000E85EC0BF04550D8B49B
:1010500065D1000E456E530E47EC0CF0050E346E54
:1010600043A604D00001E16BE12B02D00001E16B4B
:1010700043A404D0020E0001E26F02D00001E26B33
:1010800043A004D0040E0001E36F02D00001E36B23
:1010900043A204D0080E0001E46F02D00001E46B0B
:1010A00083A804D0100E0001E56F02D00001E56BAB
:1010B00082A004D0200E0001E66F02D00001E66B92
:1010C00083A604D0400E0001E76F02D00001E76B59
:1010D00081A004D0800E0001E86F02D00001E86B0F
:1010E0000001E8510001E7110001E6110001E511DE
:1010F0000001E4110001E3110001E2110001E1111E
:10110000EDEC0DF043AA04D00001E16BE12B02D01D
:101110000001E16B43A804D0020E0001E26F02D08F
:101120000001E26B81A404D0040E0001E36F02D041
:101130000001E36B81A804D0080E0001E46F02D027
:101140000001E46B83A204D0100E0001E56F02D011
:101150000001E56B83A004D0200E0001E66F02D0F1
:101160000001E66B80A204D0400E0001E76F02D0C0
:101170000001E76B80A004D0800E0001E86F02D070
:101180000001E86B0001E8510001E7110001E611E0
:101190000001E5110001E4110001E3110001E21179
:1011A0000001E111EDEC0DF0020E05EC0EF0D8900F
:1011B00015321432D8901532143214500008000140
:1011C000E16F0001E105EDEC0DF0030E05EC0EF012
:1011D000D89015321432D8901532143214500008B9
:1011E0000001E16F0001E105EDEC0DF0050E05ECED
:1011F0000EF0D89015321432D890153214321450A3
:1012000000080001E16F0001E105EDEC0DF0060EB4
:1012100005EC0EF0D89015321432D89015321432F5
:10122000145000080001E16F0001E105EDEC0DF044
:1012300081A604D00001E16BE12B02D00001E16B3B
:1012400081A204D0400E0001E26F02D00001E26BE7
:1012500080AA04D0800E0001E36F02D00001E36B8E
:101260000001E3510001E2110001E46F81AA02D004
:10127000010E01D0000E00080001E56F0001D890BA
:10128000E535020F0001E4110001E111EDEC0DF074
:1012900043AC04D00001E16BE12B02D00001E16B13
:1012A00083AA04D0020E0001E26F02D00001E26BBB
:1012B00082AA04D0040E0001E36F02D00001E36BA8
:1012C00083A404D0080E0001E46F02D00001E46B97
:1012D00082A204D0100E0001E56F02D00001E56B80
:1012E00082A404D0200E0001E66F02D00001E66B5C
:1012F0000001E6510001E5110001E4110001E311D4
:101300000001E2110001E111EDEC0DF034500F0B82
:10131000500947EC0CF0450E47EC0CF03A50D8B4AD
:1013200003D087EC0DF0436E3550D8B48FD6A1ECC6
:101330000DF0336E2F50D8B420D029D0B7EC0EF07A
:10134000000E316E31C0D8F0000E306E3050D1EC4E
:101350000EF01FD0000E316E31C0D8F033C030F027
:101360003050D1EC0EF007D033C031F031C0D8F09E
:101370003050D1EC0EF0010E0BD03250000AD8B430
:10138000DDD7110AD8B4E6D7030AD8B4EDD7000EDA
:101390002F6E2F50D8B417D026D00D0E3218D8A4E7
:1013A00022D03050D8A41FD0000E316E31C0D8F0FA
:1013B000010E306E3050D1EC0EF015D0335049ECA8
:1013C0000EF0312A10D03350000AD8B40CD00A0ADB
:1013D000D8B4E3D7070AD8B406D01C0AD8B403D0CF
:1013E000030AD8A4EBD733C032F030D69E96C6AEEF
:1013F0000CD1C69E000E426E20EE03F02950D92675
:101400002A50DA22DECF04F0DDCF05F004C0D9FF88
:1014100005C0DAFF010EDF6E000E296E000E2A6E87
:1014200012000001BCB31200BAC029F0BBC02AF000
:10143000BAC0D9FFBBC0DAFFDF50416E000120EE19
:1014400001F0BA51D926BB51DA22DECF2BF0DDCF25
:101450002CF0050E0001BA27000EBB23D20E0001AE
:10146000BA190BE1000E0001BB19D8A406D0CD0EAD
:101470000001BA6F000E0001BB6F0001BC910001BA
:10148000B8510001BA1908E10001B9510001BB19B6
:10149000D8A402D00001BC83C580020E426E1200A7
:1014A000C582020E426E1200C5AC06D00001BE2BF2
:1014B000040E14EC0DF01200D8904730056E463043
:1014C000046E0450C96E46A003D00B0E426E12008B
:1014D000030E426E1200C5AC06D00001BE2B040EF6
:1014E00014EC0DF01200C58246C004F047C005F0B0
:1014F00005C004F0056A060E0416000E0516F00E6F
:101500000410466E0550476E4680010E3F6E020E77
:10151000426E12003F04D8B41AD02BC0D9FF2CC0A1
:10152000DAFFDECF46F0DDCF47F020EE03F02B50A0
:10153000D9262C50DA22DECF27F0DDCF28F020EE9E
:1015400002F02B50D9262C50DA22DF50406E46C0D4
:10155000C9FF46A003D0050E426E1200030E426E74
:101560001200C5AC07D00001BE2BC59C050E14ECC3
:101570000DF0120040064028D8A40ED0050E2B26F0
:10158000000E2C22412E04D0000E14EC0DF012009F
:10159000C582020E426E120027C0D9FF28C0DAFFB2
:1015A000DF50C96E274A282A1200C5AC07D00001B7
:1015B000BE2B040E14EC0DF0C59C1200C586080E5F
:1015C000426E1200080E426EC586120027C0D9FF77
:1015D00028C0DAFFC9CFDFFF274A282A010E405E64
:1015E000D8B404D0C59A060E426E03D0C58ADDEC8D
:1015F0000EF0C5881200000E14EC0DF01200000170
:10160000BE2B060E14EC0DF012004250000AD8B4A6
:1016100008D7010AD8B444D7030AD8B47BD7010A43
:10162000D8B49FD7070AD8B4E6D7010AD8B4BDD733
:10163000030AD8B4C7D7010AD8B4DDD70F0AD8B483
:10164000C5D7020AD8B430D7010AD8B444D7D7D7FF
:10165000196E0001BCB146D016C0D9FF17C0DAFF21
:10166000020EDF6E000120EE01F0B851D926B9510B
:10167000DA2214C0DEFF15C0DDFFB8C0D9FFB9C043
:10168000DAFF19C0DFFF000120EE03F0B851D926C0
:10169000B951DA2216C0DEFF17C0DDFF050E0001CA
:1016A000B827000EB923D20E0001B8190BE1000EC5
:1016B0000001B919D8A406D0CD0E0001B86F000EF4
:1016C0000001B96F0001BC930001B8510001BA19C3
:1016D0000FE10001B9510001BB19D8A409D00001E4
:1016E000BC8106D016C0D9FF17C0DAFF010EDF6E2D
:1016F00016C0D9FF17C0DAFF020EDE18D8A41200F8
:101700004250D8A4FDD79E8612000001DF6F000E64
:101710000001E06FDAC0D8F00001DF51D1EC0EF02B
:1017200017D00001E051010DDBC0DDF0DCC0DEF0C0
:10173000F3500001DD27F4500001DE23DDC0F6FF89
:10174000DEC0F7FF0800F55049EC0EF00001E02B79
:101750000001E051DAC0DDF00001DE6B0001DD27A1
:10176000000EDE230001DEBF08D00001DE511CE1C7
:10177000100E0001DD5DD8B012000001E051010D36
:10178000DBC0DDF0DCC0DEF0F3500001DD27F450FB
:101790000001DE23DDC0F6FFDEC0F7FF0800F550D4
:1017A0000009D8B41200BDD712000001D66F020E96
:1017B000486E000E0001C26F000EC16F000E0001E6
:1017C000C06F000EBF6F39D024C01DF025C01EF0C1
:1017D00026C01FF0D6C020F0216A480E226E000EEF
:1017E000236E21EC0CF011D0E40E00D000D0E82ED6
:1017F000FCD700D000D0140E0001BF190001C011A9
:10180000D8B407D00001BF4BC02B020E4818D8B483
:10181000EBD7140E0001BF190001C011D8B412009B
:101820004850D8B41200020E0001C1190001C211C3
:10183000D8B412000001C14BC22B4804D8B4120026
:10184000C3D70001BCB11CD0C80E146E000E156EBB
:101850001DC016F01EC017F01FC018F020C019F0F0
:1018600021C01AF0B4EC0CF0C80E146E000E156E08
:1018700022C016F023C017F0010E28EC0BF0120066
:1018800022C0D9FF23C0DAFF010EDF6E1200146EF2
:101890000001E951D8B4FCD79DB806D04450D8A473
:1018A00003D014C0ADFF13D09D983950010D400EE8
:1018B000F324D96E010EF420DA6E14C0DFFF392A4A
:1018C0003F0E396402D0000E396E0001E907445022
:1018D000D8A412009D881200000E896EEF0E926E41
:1018E0000C0E0F01386F000E8A6E9368000E0F0108
:1018F000396F000E616E180E8B6E9468000E0F012A
:101900003A6F000E8C6E9568000E0F013B6F000E53
:101910008D6E030E966E030E0F013C6FF18E12005A
:10192000400E0001E9611ED080BE13D03850010D79
:10193000400EF324D96E010EF420DA6EDF50AD6E46
:10194000382A3F0E386402D0000E386E0001E92BB1
:1019500012009D98010E446E44B002D0439E01D007
:10196000438E12009D98120019C01BF01AC01CF083
:10197000D8901B361C3614C0D9FF15C0DAFF1BC027
:10198000DEFF1CC0DDFF20EE02F01450D9261550FA
:10199000DA2218C0DFFF20EE03F01450D9261550CC
:1019A000DA2216C0DEFF17C0DDFF1200010E5EEC6A
:1019B0000EF02A0E0001D86F8D0EE82EFED7D82F1C
:1019C000FCD700D0030E5EEC0EF00C0E5EEC0EF0B9
:1019D000010E5EEC0EF02A0E0001D86F8D0EE82E7F
:1019E000FED7D82FFCD700D012000001D96F2A0EE5
:1019F0005EEC0EF0790E5EEC0EF0810E5EEC0EF0F9
:101A00000001D9515EEC0EF0780E5EEC0EF0280E5F
:101A10005EEC0EF02A0E0001D86F8D0EE82EFED778
:101A2000D82FFCD700D01200036EC58420EE03F03F
:101A30002950D9262A50DA22DE50DE10D8B410D030
:101A400020EE03F02950D9262A50DA22DECF01F009
:101A5000DDCF02F001C0D9FF02C0DAFF03C0DFFF13
:101A6000000E426E1200CD0E0001BA6F000E000192
:101A7000BB6FCD0E0001B86F000E0001B96F000101
:101A8000BC830001BC91000E0001BE6F000EC76E4A
:101A9000280EC66E000ECB6E4F0EC86E9E969D86AB
:101AA0001200A39AA398480E706E900E716E260EC7
:101AB000726E440E756E000E766E000E3E6E000E57
:101AC0003D6E080E0001EA6F000E3C6E000E3B6E8C
:101AD000000E3A6EA38A12009D9A9D98480EB86E29
:101AE000900EAB6E260EAC6E8A0EAF6E000EB06E10
:101AF000000E396E000E386E400E0001E96F000EC8
:101B0000376E000E366E000E356E9D8A1200000E86
:101B1000146E3A50D8B4FDD7A39A3B50010D600E15
:101B2000F324D96E000EF420DA6EDF50146E3B2AD7
:101B30003F0E3B6402D0000E3B6E3A06A38A14505F
:101B40001200000E146E3550D8B4FDD79D9A365051
:101B5000010D000EF324D96E010EF420DA6EDF5071
:101B6000146E362A3F0E366402D0000E366E3506ED
:101B70009D8A1450120001EE00F0800EEE6AE80615
:101B8000FDE100EE60F0760EEE6AE806FDE100EEA3
:101B900027F0220EEE6AE806FDE14C904C92000E12
:101BA000F86E000106EF08F0080E0001EA6113D09C
:101BB0003D50010DB00EF324D96E000EF420DA6E04
:101BC000DF50736E3D2A070E3D6402D0000E3D6E5D
:101BD0000001EA2B1200A3981200166E34C015F013
:101BE0000F0E15161650F00B151047EC0CF0165092
:101BF000FF0A346E34C015F0153A0F0E151616385C
:101C0000F00B151047EC0CF01200186E18C016F00F
:101C100016461646C2501618830B1618C26EC2809E
:101C2000C282C2B2FED7C450176E166AC3501624C1
:101C3000146E000E1720156E120071A202D071985A
:101C400071883C50010D600EF324D96E000EF42013
:101C5000DA6E74CFDFFF3C2A3F0E3C6402D0000EE8
:101C60003C6E3A2A1200ABA202D0AB98AB88375038
:101C7000010D000EF324D96E010EF420DA6EAECF02
:101C8000DFFF372A3F0E376402D0000E376E352A49
:101C900012000001D76F400E0001D26FD7C0D3F001
:101CA000D20E246E000E256E020E266E3C0ED5EC72
:101CB0000BF0D50EE82EFED700F012000001D76F12
:101CC000000E0001D46FD7C0D5F0D40E246E000EE4
:101CD000256E020E266E3C0ED5EC0BF0D50EE82ECE
:101CE000FED700F01200FEEC0EF06CEC0CF0F4EC01
:101CF0000EF0E9EC0EF06CEC0DF051EC0DF033EC65
:101D00000DF0C4EC0EF098EC0EF012009E904A50CC
:101D1000CF6E49C0CEFF2D4A2E2A2D502E10D8B49A
:101D200012000BEC0FF0000E2E6E000E2D6E120046
:101D3000300ECD6E000ECC6E3C0ECF6EAF0ECE6E62
:101D4000CECF49F0CFCF4AF09E909D800EEC0FF0A1
:101D500012004404D8A4120080BE1200000E446E8B
:101D600044B002D0439E01D0438E9D881200010EE4
:101D70005EEC0EF02A0E0001D86F8D0EE82EFED715
:101D8000D82FFCD700D01200D50ED56E800ED76E9E
:101D9000000ED66E800E4B6EF294F28A10EC0FF0AD
:101DA00012000001D96F0001D939E846E00B0001AB
:101DB000D81180095EEC0EF01200050E2B26000EE5
:101DC0002C22412E03D0040E426E1200010E426EF0
:101DD0001200010EC26E800EC16E8E0EC06E000E1D
:101DE000C36E000EC46E1200D09E9F96A2969F9A5C
:101DF0009F98A59AA598F1949F901200600ED36EBB
:101E0000040ED26E400E9B6E1200F2944BC0D6FFB1
:101E1000A9EC0EF01200010E456E1200CD801200EA
:061E2000D58E1200120035
:020000040020DA
:08000000FFFFFFFFFFFFFFFF00
:020000040030CA
:0E000000FF081F3CFFBF81FF0FC00FE00F4045
:00000001FF
