:040000006EEF00F0AF
:100008004C82FACF06F0FBCF07F0E9CF08F0EACF31
:1000180009F0E1CF0AF0E2CF0BF0D9CF0CF0DACF3C
:100028000DF0F3CF0EF0F4CF0FF0F6CF10F0F7CFBE
:1000380011F0F8CF12F0F5CF13F09DB69EA603D0BD
:10004800F2EC09F029D0A0B6A1A603D0D6EC0EF0A8
:1000580023D09DBA9EAA03D0F8EC0DF01DD09DB810
:100068009EA803D08CEC0CF017D0A3BAA4AA03D096
:10007800E2EC0DF011D0A3B8A4A803D0CBEC0DF09E
:100088000BD0F2BAF2A403D0C9EC0EF005D09DB0A3
:100098009EA002D038EC0EF013C0F5FF12C0F8FF96
:1000A80011C0F7FF10C0F6FF0FC0F4FF0EC0F3FF3A
:1000B8000DC0DAFF0CC0D9FF0BC0E2FF0AC0E1FF98
:1000C80009C0EAFF08C0E9FF07C0FBFF06C0FAFF46
:0800D8004C92110082EF0DF0C3
:10100000004F4C4544205445535400004AEC0EF028
:10101000F28EF28C8D948098958C8C9C680E0001D9
:10102000E16FE40EE82EFED7E12FFCD700F0D2EC02
:101030000CF0FF0EF1EC0CF0000E0001DA6F010E67
:101040000001DB6F100E0001DC6F000E81EC0BF075
:101050004650D8B465D1000E466E530E43EC0CF0EA
:10106000050E346E83A404D00001E16BE12B02D0A5
:101070000001E16B83AA04D0020E0001E26F02D0EE
:101080000001E26B82AA04D0040E0001E36F02D0DB
:101090000001E36B82A204D0080E0001E46F02D0CD
:1010A0000001E46B83A804D0100E0001E56F02D0AC
:1010B0000001E56B82A004D0200E0001E66F02D093
:1010C0000001E66B83A604D0400E0001E76F02D05A
:1010D0000001E76B81A004D0800E0001E86F02D010
:1010E0000001E86B0001E8510001E7110001E61181
:1010F0000001E5110001E4110001E3110001E2111A
:101100000001E1119BEC0DF082A404D00001E16B21
:10111000E12B02D00001E16B83AC04D0020E000190
:10112000E26F02D00001E26B81A404D0040E000142
:10113000E36F02D00001E36B81A804D0080E000128
:10114000E46F02D00001E46B83A204D0100E000112
:10115000E56F02D00001E56B83A004D0200E0001F2
:10116000E66F02D00001E66B80A204D0400E0001C1
:10117000E76F02D00001E76B80A004D0800E000171
:10118000E86F02D00001E86B0001E8510001E711AF
:101190000001E6110001E5110001E4110001E31175
:1011A0000001E2110001E1119BEC0DF0020EB3EC25
:1011B0000DF0D89015321432D890153214321450E4
:1011C00000080001E16F0001E1059BEC0DF0030E4A
:1011D000B3EC0DF0D89015321432D8901532143289
:1011E000145000080001E16F0001E1059BEC0DF0D7
:1011F000050EB3EC0DF0D89015321432D89015329C
:101200001432145000080001E16F0001E1059BEC6D
:101210000DF0060EB3EC0DF0D89015321432D890C4
:1012200015321432145000080001E16F0001E1058D
:101230009BEC0DF081A604D00001E16BE12B02D004
:101240000001E16B81A204D0400E0001E26F02D0E8
:101250000001E26B80AA04D0800E0001E36F02D08F
:101260000001E36B0001E3510001E2110001E46FB2
:1012700081AA02D0010E01D0000E00080001E56F26
:101280000001D890E535020F0001E4110001E111E1
:101290009BEC0DF080A004D00001E16BE12B02D0AB
:1012A0000001E16B80A004D0020E0001E26F02D0C9
:1012B0000001E26B80A004D0040E0001E36F02D0B5
:1012C0000001E36B80A004D0080E0001E46F02D09F
:1012D0000001E46B80A004D0100E0001E56F02D085
:1012E0000001E56B80A004D0200E0001E66F02D063
:1012F0000001E66B0001E6510001E5110001E41177
:101300000001E3110001E2110001E1119BEC0DF07D
:1013100034500F0B300943EC0CF0430E43EC0CF04F
:101320003550D8B495D668EC0DF0336E2F50D8B444
:1013300020D029D088EC0EF0000E316E31C0D8F0EC
:10134000000E306E305095EC0EF01FD0000E316E56
:1013500031C0D8F033C030F0305095EC0EF007D0EB
:1013600033C031F031C0D8F0305095EC0EF0010EA2
:101370000BD03250000AD8B4DDD7110AD8B4E6D762
:10138000030AD8B4EDD7000E2F6E2F50D8B417D063
:1013900026D00D0E3218D8A422D03050D8A41FD099
:1013A000000E316E31C0D8F0010E306E305095EC29
:1013B0000EF015D033500EEC0EF0312A10D0335011
:1013C000000AD8B40CD00A0AD8B4E3D7070AD8B4B4
:1013D00006D01C0AD8B403D0030AD8A4EBD733C074
:1013E00032F036D69E96C6AE0CD1C69E000E436E27
:1013F00020EE03F02950D9262A50DA22DECF04F05D
:10140000DDCF05F004C0D9FF05C0DAFF010EDF6EA5
:10141000000E296E000E2A6E12000001BCB31200ED
:10142000BAC029F0BBC02AF0BAC0D9FFBBC0DAFFEE
:10143000DF50426E000120EE01F0BA51D926BB51B7
:10144000DA22DECF2BF0DDCF2CF0050E0001BA271B
:10145000000EBB23D20E0001BA190BE1000E0001F1
:10146000BB19D8A406D0CD0E0001BA6F000E000142
:10147000BB6F0001BC910001B8510001BA1908E12D
:101480000001B9510001BB19D8A402D00001BC83EE
:10149000C580020E436E1200C582020E436E12001A
:1014A000C5AC06D00001BE2B040E10EC0DF01200EE
:1014B000D8904830056E4730046E0450C96E47A07E
:1014C00003D00B0E436E1200030E436E1200C5AC28
:1014D00006D00001BE2B040E10EC0DF01200C582E8
:1014E00047C004F048C005F005C004F0056A060EC8
:1014F0000416000E0516F00E0410476E0550486ED7
:101500004780010E406E020E436E12004004D8B4B4
:101510001AD02BC0D9FF2CC0DAFFDECF47F0DDCFC9
:1015200048F020EE03F02B50D9262C50DA22DECFE3
:1015300027F0DDCF28F020EE02F02B50D9262C50DA
:10154000DA22DF50416E47C0C9FF47A003D0050E25
:10155000436E1200030E436E1200C5AC07D00001AB
:10156000BE2BC59C050E10EC0DF012004106412863
:10157000D8A40ED0050E2B26000E2C22422E04D00D
:10158000000E10EC0DF01200C582020E436E120028
:1015900027C0D9FF28C0DAFFDF50C96E274A282AA2
:1015A0001200C5AC07D00001BE2B040E10EC0DF0EC
:1015B000C59C1200C586080E436E1200080E436ECD
:1015C000C586120027C0D9FF28C0DAFFC9CFDFFFC8
:1015D000274A282A010E415ED8B404D0C59A060EC7
:1015E000436E03D0C58AA1EC0EF0C5881200000E30
:1015F00010EC0DF012000001BE2B060E10EC0DF0E9
:1016000012004350000AD8B408D7010AD8B444D70E
:10161000030AD8B47BD7010AD8B49FD7070AD8B435
:10162000E6D7010AD8B4BDD7030AD8B4C7D7010A90
:10163000D8B4DDD70F0AD8B4C5D7020AD8B430D78A
:10164000010AD8B444D7D7D7196E0001BCB146D02F
:1016500016C0D9FF17C0DAFF020EDF6E000120EEC0
:1016600001F0B851D926B951DA2214C0DEFF15C0F5
:10167000DDFFB8C0D9FFB9C0DAFF19C0DFFF000134
:1016800020EE03F0B851D926B951DA2216C0DEFF98
:1016900017C0DDFF050E0001B827000EB923D20EDA
:1016A0000001B8190BE1000E0001B919D8A406D049
:1016B000CD0E0001B86F000E0001B96F0001BC93A0
:1016C0000001B8510001BA190FE10001B951000140
:1016D000BB19D8A409D00001BC8106D016C0D9FF1F
:1016E00017C0DAFF010EDF6E16C0D9FF17C0DAFF90
:1016F000020EDE18D8A412004350D8A4FDD79E864F
:1017000012000001DF6F000E0001E06FDAC0D8F0B8
:101710000001DF5195EC0EF017D00001E051010DF2
:10172000DBC0DDF0DCC0DEF0F3500001DD27F4505B
:101730000001DE23DDC0F6FFDEC0F7FF0800F55034
:101740000EEC0EF00001E02B0001E051DAC0DDF0FC
:101750000001DE6B0001DD27000EDE230001DEBF8D
:1017600008D00001DE511CE1100E0001DD5DD8B093
:1017700012000001E051010DDBC0DDF0DCC0DEF045
:10178000F3500001DD27F4500001DE23DDC0F6FF39
:10179000DEC0F7FF0800F5500009D8B41200BDD72D
:1017A00012000001D66F020E496E000E0001C26FDA
:1017B000000EC16F000E0001C06F000EBF6F39D068
:1017C00024C01DF025C01EF026C01FF0D6C020F09A
:1017D000216A490E226E000E236E1DEC0CF011D012
:1017E000E40E00D000D0E82EFCD700D000D0140EBC
:1017F0000001BF190001C011D8B407D00001BF4BD0
:10180000C02B020E4918D8B4EBD7140E0001BF1933
:101810000001C011D8B412004950D8B41200020E11
:101820000001C1190001C211D8B412000001C14B5E
:10183000C22B4904D8B41200C3D70001BCB11CD0DC
:10184000C80E146E000E156E1DC016F01EC017F0E7
:101850001FC018F020C019F021C01AF0B0EC0CF035
:10186000C80E146E000E156E22C016F023C017F0BD
:10187000010E24EC0BF0120022C0D9FF23C0DAFFC6
:10188000010EDF6E1200146E0001E951D8B4FCD7CE
:101890009DB806D04550D8A403D014C0ADFF13D0D6
:1018A0009D983950010D400EF324D96E010EF4209D
:1018B000DA6E14C0DFFF392A3F0E396402D0000E01
:1018C000396E0001E9074550D8A412009D88120026
:1018D000000E896EEF0E926E0C0E0F01386F000E27
:1018E0008A6E9368000E0F01396F000E616E180E3C
:1018F0008B6E9468000E0F013A6F000E8C6E956827
:10190000000E0F013B6F000E8D6E030E966E030EE0
:101910000F013C6FF18E1200400E0001E9611ED0F4
:1019200080BE13D03850010D400EF324D96E010E45
:10193000F420DA6EDF50AD6E382A3F0E386402D0E4
:10194000000E386E0001E92B12009D98010E456EC5
:1019500045B002D0449E01D0448E12009D981200E2
:1019600019C01BF01AC01CF0D8901B361C3614C0CE
:10197000D9FF15C0DAFF1BC0DEFF1CC0DDFF20EE63
:1019800002F01450D9261550DA2218C0DFFF20EEDD
:1019900003F01450D9261550DA2216C0DEFF17C006
:1019A000DDFF1200010E23EC0EF02A0E0001D86FAD
:1019B0008D0EE82EFED7D82FFCD700D0030E23ECD7
:1019C0000EF00C0E23EC0EF0010E23EC0EF02A0E9E
:1019D0000001D86F8D0EE82EFED7D82FFCD700D08F
:1019E00012000001D96F2A0E23EC0EF0790E23ECC1
:1019F0000EF0810E23EC0EF00001D95123EC0EF015
:101A0000780E23EC0EF0280E23EC0EF02A0E0001C7
:101A1000D86F8D0EE82EFED7D82FFCD700D012003D
:101A2000036EC58420EE03F02950D9262A50DA220D
:101A3000DE50DE10D8B410D020EE03F02950D926A5
:101A40002A50DA22DECF01F0DDCF02F001C0D9FF4B
:101A500002C0DAFF03C0DFFF000E436E1200CD0E9E
:101A60000001BA6F000E0001BB6FCD0E0001B86F10
:101A7000000E0001B96F0001BC830001BC91000E93
:101A80000001BE6F000EC76E280EC66E000ECB6E34
:101A90004F0EC86E9E969D8612009D9A9D98480E88
:101AA000B86E900EAB6E260EAC6E8A0EAF6E000E48
:101AB000B06E000E396E000E386E400E0001E96FF8
:101AC000000E376E000E366E000E356E9D8A1200C7
:101AD000000E146E3550D8B4FDD79D9A3650010DC6
:101AE000000EF324D96E010EF420DA6EDF50146E6E
:101AF000362A3F0E366402D0000E366E35069D8AB9
:101B00001450120001EE00F0800EEE6AE806FDE1CE
:101B100000EE60F0760EEE6AE806FDE100EE27F0DA
:101B2000230EEE6AE806FDE14C904C92000EF86E32
:101B3000000106EF08F0166E34C015F00F0E1516F2
:101B40001650F00B151043EC0CF01650FF0A346ED3
:101B500034C015F0153A0F0E15161638F00B151087
:101B600043EC0CF01200186E18C016F0164616461C
:101B7000C2501618830B1618C26EC280C282C2B23F
:101B8000FED7C450176E166AC3501624146E000E8A
:101B90001720156E1200080E3D6012D03E50010D48
:101BA000B00EF324D96E000EF420DA6EDF50736E9F
:101BB0003E2A070E3E6402D0000E3E6E3D2A120001
:101BC000A398120071A202D0719871883C50010D47
:101BD000600EF324D96E000EF420DA6E74CFDFFFAE
:101BE0003C2A3F0E3C6402D0000E3C6E3A2A1200A2
:101BF000ABA202D0AB98AB883750010D000EF32496
:101C0000D96E010EF420DA6EAECFDFFF372A3F0E19
:101C1000376402D0000E376E352A12000001D76FEC
:101C2000400E0001D26FD7C0D3F0D20E246E000E4A
:101C3000256E020E266E3C0ED1EC0BF0D50EE82E72
:101C4000FED700F012000001D76F000E0001D46F24
:101C5000D7C0D5F0D40E246E000E256E020E266E6F
:101C60003C0ED1EC0BF0D50EE82EFED700F01200A2
:101C70009E904B50CF6E4AC0CEFF2D4A2E2A2D503B
:101C80002E10D8B41200CFEC0EF0000E2E6E000E07
:101C90002D6E1200C2EC0EF068EC0CF0B8EC0EF0F9
:101CA000ADEC0EF04DEC0DF02FEC0DF06CEC0EF0F9
:101CB0005BEC0EF01200300ECD6E000ECC6E3C0EC2
:101CC000CF6EAF0ECE6ECECF4AF0CFCF4BF09E9000
:101CD0009D80D2EC0EF01200D50ED56E800ED76E20
:101CE000000ED66E800E0001EA6FF294F28AD4ECF8
:101CF0000EF012004504D8A4120080BE1200000E9F
:101D0000456E45B002D0449E01D0448E9D8812009D
:101D1000010E23EC0EF02A0E0001D86F8D0EE82E76
:101D2000FED7D82FFCD700D012000001D96F0001D8
:101D3000D939E846E00B0001D811800923EC0EF0F8
:101D40001200050E2B26000E2C22422E03D0040E6C
:101D5000436E1200010E436E1200010EC26E800E21
:101D6000C16E8E0EC06E000EC36E000EC46E1200E9
:101D7000D09E9F96A2969F9A9F98A59AA598F19417
:101D80009F901200600ED36E040ED26E400E9B6EBA
:101D90001200F294EAC0D6FF7AEC0EF01200010EA7
:0E1DA000466E1200CD801200D58E1200120089
:020000040020DA
:08000000FFFFFFFFFFFFFFFF00
:020000040030CA
:0E000000FF081F3CFFBF81FF0FC00FE00F4045
:00000001FF
