:0400000080312A28F9
:100008007E14803120007F08FA002100911E1328F9
:100018002000911E13288031F820803125282100E6
:10002800111E1D282000111E1D288031DD20803161
:1000380025282100111C25282000111C2528813184
:100048002B217A082000FF007E10090080312C281F
:10005800703084000030850009308131682180319A
:1000680020308400003085002330813168217E10E3
:10007800200080313F288131542180318B170B17A4
:1000880034302000C400F130890B4828C40B4828BC
:10009800003222000D160D12720803197128200073
:1000A8008D1E592822000D165B2822000D12F20120
:1000B800003020000D1A80300D1840380C1B2038F5
:1000C8008D1A10380C1908380C1A04388C1B023891
:1000D8008C19013880317F2080317308031950282A
:1000E8008031A3208031803903197D2822000D1624
:1000F800502822004F282000C300760803198128C1
:100108002100111A8C282000430823009A00A028F7
:10011800111220004308FB007808383E860087014A
:100128007B0881000130FB007B08F8070830780263
:100138000318F8010130F60221001116080020000A
:10014800C30173080319A528210091127408303ED1
:10015800860087010108FB007B082000C3000130EE
:10016800FB007B08F407083074020318F40101301F
:10017800F3022100911620004308080002302200F3
:100188008C00FD3021008C0023008C0124008C01A0
:10019800103022008D00EF3021008D00C030230088
:1001A8008D0024008D012100951722009D019E01DC
:1001B8000800083076020318F5287708383E8600CC
:1001C8008701010823009A000130F9007908F70730
:1001D800083077020318F7010130F9007908F607AB
:1001E800080021001112080023009D1CFD281D1283
:1001F8001D161908F9007508303E86008701790830
:1002080081000130F9007908F507083075020318F4
:10021800F5010130F9007908F3070800210091126F
:100228001112483023009F0090309D0026309E0018
:1002380044309B009C01F801F7010830FB007B0863
:10024800F600F501F401F3012100911608002000E1
:10025800111071089700700896000130C00700302F
:10026800C13D00304102043003194002031C08005C
:1002780081316E212000C001C1010800303020000A
:1002880098009901B1309700E03096001708F10006
:100298001608F00011102100111481317321080093
:1002A8008131602181318031C22081318131122137
:1002B80081318131422108007030210099009A0172
:1002C80098011A1B08006529640080010131890B17
:1002D800692900340130F9007908F200080020008B
:0402E80018140800DE
:020000040001F9
:04000E00A4FFFFDF6D
:00000001FF
